:020000040000FA
:1000000000308A00A6280000140807398C00140C60
:100010008D008D0C8D0C1F308D050D08160784008A
:100020008D018D0A8C0A15288D0D8C0B14289508CE
:1000300003191D280D08800420288D090D0880054E
:10004000003493012830930013082B3C031C3528FF
:10005000130894009501960104201308940095015B
:10006000803096000420930A2428FF309100003449
:10007000910A110803195228013A03195D28033A1D
:1000800003196128013A03196C28073A03197128EA
:10009000013A03197628033A03198128013A031912
:1000A000862891281208033C031D5B2883168511BE
:1000B000831285155C28212093289208031D212096
:1000C00093281208053C031D6A2883160511831224
:1000D00005156B2821209328120B6F2870282120EA
:1000E00093281208043C031D212093281208023C87
:1000F000031D7F28831685108312851480282120F4
:1001000093281208073C031D212093281208063C5F
:10011000031D8F28831605108312051490282120B3
:1001200093282120932802309300FA309400143051
:10013000840000080319A328A5308C008C0B9E288E
:100140000000800B9C28930B9528003484011F30FD
:100150008305FF309100831606148312061CB22813
:1001600092013820831686148312861CBA28013027
:1001700092003820831606158312061DC22802300D
:1001800092003820831686158312861DCA280330F4
:1001900092003820831606168312061ED2280430D9
:1001A00092003820831686168312861EDA280530C0
:1001B00092003820831606178312061FE2280630A5
:1001C00092003820831686178312861FEA2807308C
:0801D00092003820AB28630007
:02400E00F23F7F
:00000001FF
;PIC16F84A
;CRC=29CD  CREATED="15-ноя-12 18:32"
