:020000040000FA
:100000000C9462000C941D040C944A040C948A0015
:100010000C948A000C948A000C948A000C948A0038
:100020000C948A000C948A000C948A000C948A0028
:100030000C948A000C948A000C948A000C948A0018
:100040000C9403030C948A000C948A000C948A008C
:100050000C948A000C948A000C948A000C948A00F8
:100060000C948A000C948A000000000024002700F1
:100070002A0000000000250028002B0000000000DE
:1000800023002600290004040404040404040202DA
:100090000202020203030303030301020408102007
:1000A0004080010204081020010204081020000012
:1000B0000007000201000003040600000000000029
:1000C0000000A40211241FBECFEFD8E0DEBFCDBFD9
:1000D00011E0A0E0B1E0E2E8F9E002C005900D9285
:1000E000A634B107D9F711E0A6E4B1E001C01D9232
:1000F000A636B107E1F710E0C4ECD0E004C02297C7
:10010000FE010E94BB04C23CD107C9F70E94ED0268
:100110000C94BF040C940000CF93DF93EC018C810E
:1001200060E00E94B10381E090E00E944B038C816B
:1001300061E00E94B10381E090E00E944B038C815A
:1001400060E00E94B10384E690E00E944B03DF91DF
:10015000CF910895AF92BF92CF92DF92EF92FF922C
:100160001F93DF93CF930F92CDB7DEB7182FE12EF9
:10017000F92EAA24BB24C62EDD24F701858161E077
:1001800099830E949203B6010A2C02C07595679567
:100190000A94E2F76170F70185810E94B103089427
:1001A000A11CB11C0894E11CF11C9981F8E0AF1668
:1001B000B10419F7812F0E948C000F90CF91DF912D
:1001C0001F91FF90EF90DF90CF90BF90AF90089578
:1001D000AF92BF92CF92DF92EF92FF921F93DF9385
:1001E000CF930F92CDB7DEB7182FE12EF92EAA24A8
:1001F000BB24C62EDD24F701858161E099830E942E
:100200009203B6010A2C02C0759567950A94E2F72D
:100210006170F70185810E94B1030894A11CB11C93
:100220000894E11CF11C9981F4E0AF16B10419F7B0
:10023000812F0E948C000F90CF91DF911F91FF9032
:10024000EF90DF90CF90BF90AF9008951F93CF9322
:10025000DF93EC01162F8A81642F0E94B1038B81FA
:1002600060E00E94B1038D8584FF05C0CE01612F3F
:100270000E94AA000EC0612F70E084E0759567951A
:100280008A95E1F7CE010E94E800CE01612F0E941D
:10029000E800DF91CF911F91089541E00E9426016F
:1002A000089540E00E9426010895EF92FF920F9377
:1002B0001F93CF93DF93EC017A016770660F660F8F
:1002C000660F60640E94510100E010E0E881F9814E
:1002D000D701A00FB11F0190F081E02DCE016C91EC
:1002E00009950F5F1F4F0830110581F7DF91CF91FE
:1002F0001F910F91FF90EF900895FC016685262FC6
:10030000246026876C600E9451010895DF93CF938B
:10031000CDB7DEB728970FB6F894DEBF0FBECDBFBE
:10032000DE011196EDE3F1E028E001900D922150FD
:10033000E1F7FC012189241710F4422F4150E42FEA
:10034000F0E0EE0FFF1FEC0FFD1F2181260F20684C
:10035000622F0E94510128960FB6F894DEBF0FBE9F
:10036000CDBFCF91DF91089561E00E94510180EDF2
:1003700097E00E944B030895CF93DF93EC01423046
:1003800018F08D8588608D87498B1A8A222329F081
:10039000413019F48D8584608D8780E593EC0E944F
:1003A0004B038A8160E00E94B1038C8160E00E946F
:1003B000B1038B8160E00E94B1036D8564FD1DC0B7
:1003C000CE0163E00E94E80084E991E10E944B03C2
:1003D000CE0163E00E94E80084E991E10E944B03B2
:1003E000CE0163E00E94E80086E990E00E944B03A2
:1003F000CE0162E00E94E80016C06062CE010E9459
:10040000510184E991E10E944B036D856062CE0148
:100410000E94510186E990E00E944B036D85606265
:10042000CE010E9451016D856062CE010E94510192
:1004300084E08E87CE010E947D01CE010E94B4012E
:1004400082E08F87CE0166E00E945101DF91CF915B
:1004500008956F927F928F92AF92CF92EF920F9307
:100460001F93DF93CF93CDB7DEB73C01162F842FB8
:10047000F301428323830483E582C682A7828086B8
:100480009D8591879E8592879F859387988994877C
:1004900061E00E949203F301838161E00E94920374
:1004A000F301848161E00E949203112319F0F301AA
:1004B000158603C080E1F3018587C30160E141E057
:1004C00020E00E94BC01CF91DF911F910F91EF902E
:1004D000CF90AF908F907F906F9008958F92AF9252
:1004E000CF92EF920F93CF93DF93E62F742F522F7B
:1004F000302FAE2C8C2CA7E3B1E0EC01B983A8839C
:1005000000D000D0ADB7BEB71196CDB7DEB7198217
:1005100011961C92119712961C92129713961C9288
:1005200061E04E2F2FEF072FE52EC32E0E942902E8
:100530000F900F900F900F90DF91CF910F91EF9050
:10054000CF90AF908F900895CF92EF920F9386E463
:1005500091E067E048E029E00AE05BE0E52E3CE05E
:10056000C32E0E946E020F91EF90CF900895CF930B
:10057000DF93C6E4D1E0CE0161E043E151E00E94A7
:100580005501CE0165E04BE151E00E945501CE01DD
:1005900063E04BE051E00E945501CE0162E043E28E
:1005A00051E00E945501CE0164E04BE251E00E940F
:1005B0005501CE0160E142E020E00E94BC0182E0F2
:1005C00060E00E94920380E062EF72E043E050E05E
:1005D0000E94FD03DF91CF9108950E9458030E946D
:1005E000B702FFCFCF93DF93C6E4D1E0CE0160E046
:1005F00040E00E948601CE0160E071E00E94B104FB
:10060000DF91CF9108951F920F920FB60F92112490
:100610002F933F938F939F93AF93BF9380915D01EF
:1006200090915E01A0915F01B091600130916101F4
:100630000196A11DB11D232F2D5F2D3720F02D57C1
:100640000196A11DB11D2093610180935D019093DE
:100650005E01A0935F01B093600180915901909178
:100660005A01A0915B01B0915C010196A11DB11DE1
:100670008093590190935A01A0935B01B0935C0160
:10068000BF91AF919F918F913F912F910F900FBE8E
:100690000F901F901895019751F0880F991F880FA0
:1006A000991F02972FB7F8940197F1F72FBF08957C
:1006B000789484B5826084BD84B5816084BD85B53D
:1006C000826085BD85B5816085BDEEE6F0E0808104
:1006D00081608083E1E8F0E08081826080838081B6
:1006E00081608083E0E8F0E0808181608083E1EBDD
:1006F000F0E0808184608083E0EBF0E080818160C5
:100700008083EAE7F0E0808184608083808182607A
:100710008083808181608083808180688083109263
:10072000C1000895282F30E0C90186569F4FFC0173
:100730009491F901EA57FF4FE491EE2389F0F0E03C
:10074000EE0FFF1FE859FF4FA591B491662329F4DE
:100750008C91909589238C9308958C91892B8C93FF
:100760000895482F50E0CA0182559F4FFC01949193
:100770009A0126563F4FF9012491FA01EA57FF4F9B
:10078000E491EE23C9F1992331F1933021F4909152
:1007900080009F7705C0943031F4909180009F7D58
:1007A0009093800018C0913019F494B59F7704C0DD
:1007B000923021F494B59F7D94BD0DC0963021F404
:1007C0009091B0009F7705C0973029F49091B000C8
:1007D0009F7D9093B000F0E0EE0FFF1FEE58FF4FAB
:1007E000A591B491662329F48C91209582238C9352
:1007F00008958C91822B8C9308958230E8F4E82F31
:10080000F0E0EE0FFF1FEE59FE4F718360838130E1
:1008100041F0809169008C7F842B80936900E89A75
:10082000089580916900440F551F440F551F837F21
:10083000842B80936900E99A08951F920F920FB656
:100840000F9211242F933F934F935F936F937F9356
:100850008F939F93AF93BF93EF93FF938091620128
:1008600090916301009729F0E0916201F09163019A
:100870000995FF91EF91BF91AF919F918F917F91DA
:100880006F915F914F913F912F910F900FBE0F90FD
:100890001F9018951F920F920FB60F9211242F934D
:1008A0003F934F935F936F937F938F939F93AF93F8
:1008B000BF93EF93FF93809164019091650100973E
:1008C00029F0E0916401F09165010995FF91EF91A4
:1008D000BF91AF919F918F917F916F915F914F9158
:1008E0003F912F910F900FBE0F901F9018950F936F
:1008F0001F93CF93DF93EC018B0109C00F5F1F4F54
:10090000E881F9810190F081E02DCE010995F8018F
:100910006081662399F7DF91CF911F910F91089520
:10092000EF92FF920F931F93CF93DF93EC018B0114
:100930007A010DC0F80161918F01E881F981019080
:10094000F081E02DCE0109950894E108F108E11449
:10095000F10481F7DF91CF911F910F91FF90EF90FC
:100960000895DC01ED91FC910280F381E02D099561
:100970000895EE0FFF1F0590F491E02D0994F8946F
:10098000FFCF6B65793A01020304030500000E10E6
:100990001010100E00001E121C12121E00000E0479
:1009A0000404040400001C02021E121F00000400C4
:1009B0000404040400000000004D017704900400CA
:0809C000004000140054000087
:00000001FF
